{
  "address": "0x7c5c9E7411fF8eC19F87da860F8AE5e1031308CA",
  "abi": [
    {
      "inputs": [
        {
          "internalType": "string",
          "name": "name",
          "type": "string"
        },
        {
          "internalType": "string",
          "name": "sym",
          "type": "string"
        }
      ],
      "stateMutability": "nonpayable",
      "type": "constructor"
    },
    {
      "anonymous": false,
      "inputs": [
        {
          "indexed": true,
          "internalType": "address",
          "name": "owner",
          "type": "address"
        },
        {
          "indexed": true,
          "internalType": "address",
          "name": "approved",
          "type": "address"
        },
        {
          "indexed": true,
          "internalType": "uint256",
          "name": "tokenId",
          "type": "uint256"
        }
      ],
      "name": "Approval",
      "type": "event"
    },
    {
      "anonymous": false,
      "inputs": [
        {
          "indexed": true,
          "internalType": "address",
          "name": "owner",
          "type": "address"
        },
        {
          "indexed": true,
          "internalType": "address",
          "name": "operator",
          "type": "address"
        },
        {
          "indexed": false,
          "internalType": "bool",
          "name": "approved",
          "type": "bool"
        }
      ],
      "name": "ApprovalForAll",
      "type": "event"
    },
    {
      "anonymous": false,
      "inputs": [
        {
          "indexed": true,
          "internalType": "address",
          "name": "previousOwner",
          "type": "address"
        },
        {
          "indexed": true,
          "internalType": "address",
          "name": "newOwner",
          "type": "address"
        }
      ],
      "name": "OwnershipTransferred",
      "type": "event"
    },
    {
      "anonymous": false,
      "inputs": [
        {
          "indexed": true,
          "internalType": "address",
          "name": "from",
          "type": "address"
        },
        {
          "indexed": true,
          "internalType": "address",
          "name": "to",
          "type": "address"
        },
        {
          "indexed": true,
          "internalType": "uint256",
          "name": "tokenId",
          "type": "uint256"
        }
      ],
      "name": "Transfer",
      "type": "event"
    },
    {
      "inputs": [
        {
          "internalType": "address",
          "name": "to",
          "type": "address"
        },
        {
          "internalType": "uint256",
          "name": "tokenId",
          "type": "uint256"
        }
      ],
      "name": "approve",
      "outputs": [],
      "stateMutability": "nonpayable",
      "type": "function"
    },
    {
      "inputs": [
        {
          "internalType": "address",
          "name": "owner",
          "type": "address"
        }
      ],
      "name": "balanceOf",
      "outputs": [
        {
          "internalType": "uint256",
          "name": "",
          "type": "uint256"
        }
      ],
      "stateMutability": "view",
      "type": "function"
    },
    {
      "inputs": [],
      "name": "baseExtension",
      "outputs": [
        {
          "internalType": "string",
          "name": "",
          "type": "string"
        }
      ],
      "stateMutability": "view",
      "type": "function"
    },
    {
      "inputs": [],
      "name": "baseURI",
      "outputs": [
        {
          "internalType": "string",
          "name": "",
          "type": "string"
        }
      ],
      "stateMutability": "view",
      "type": "function"
    },
    {
      "inputs": [],
      "name": "cost",
      "outputs": [
        {
          "internalType": "uint256",
          "name": "",
          "type": "uint256"
        }
      ],
      "stateMutability": "view",
      "type": "function"
    },
    {
      "inputs": [
        {
          "internalType": "uint256",
          "name": "tokenId",
          "type": "uint256"
        }
      ],
      "name": "getApproved",
      "outputs": [
        {
          "internalType": "address",
          "name": "",
          "type": "address"
        }
      ],
      "stateMutability": "view",
      "type": "function"
    },
    {
      "inputs": [
        {
          "internalType": "address",
          "name": "owner",
          "type": "address"
        },
        {
          "internalType": "address",
          "name": "operator",
          "type": "address"
        }
      ],
      "name": "isApprovedForAll",
      "outputs": [
        {
          "internalType": "bool",
          "name": "",
          "type": "bool"
        }
      ],
      "stateMutability": "view",
      "type": "function"
    },
    {
      "inputs": [],
      "name": "maxMintAmount",
      "outputs": [
        {
          "internalType": "uint256",
          "name": "",
          "type": "uint256"
        }
      ],
      "stateMutability": "view",
      "type": "function"
    },
    {
      "inputs": [],
      "name": "maxSupply",
      "outputs": [
        {
          "internalType": "uint256",
          "name": "",
          "type": "uint256"
        }
      ],
      "stateMutability": "view",
      "type": "function"
    },
    {
      "inputs": [
        {
          "internalType": "address",
          "name": "_to",
          "type": "address"
        },
        {
          "internalType": "uint256",
          "name": "_mintAmount",
          "type": "uint256"
        }
      ],
      "name": "mint",
      "outputs": [],
      "stateMutability": "payable",
      "type": "function"
    },
    {
      "inputs": [],
      "name": "name",
      "outputs": [
        {
          "internalType": "string",
          "name": "",
          "type": "string"
        }
      ],
      "stateMutability": "view",
      "type": "function"
    },
    {
      "inputs": [],
      "name": "owner",
      "outputs": [
        {
          "internalType": "address",
          "name": "",
          "type": "address"
        }
      ],
      "stateMutability": "view",
      "type": "function"
    },
    {
      "inputs": [
        {
          "internalType": "uint256",
          "name": "tokenId",
          "type": "uint256"
        }
      ],
      "name": "ownerOf",
      "outputs": [
        {
          "internalType": "address",
          "name": "",
          "type": "address"
        }
      ],
      "stateMutability": "view",
      "type": "function"
    },
    {
      "inputs": [
        {
          "internalType": "bool",
          "name": "_state",
          "type": "bool"
        }
      ],
      "name": "pause",
      "outputs": [],
      "stateMutability": "nonpayable",
      "type": "function"
    },
    {
      "inputs": [],
      "name": "paused",
      "outputs": [
        {
          "internalType": "bool",
          "name": "",
          "type": "bool"
        }
      ],
      "stateMutability": "view",
      "type": "function"
    },
    {
      "inputs": [
        {
          "internalType": "address",
          "name": "_user",
          "type": "address"
        }
      ],
      "name": "removeWhitelistUser",
      "outputs": [],
      "stateMutability": "nonpayable",
      "type": "function"
    },
    {
      "inputs": [],
      "name": "renounceOwnership",
      "outputs": [],
      "stateMutability": "nonpayable",
      "type": "function"
    },
    {
      "inputs": [
        {
          "internalType": "address",
          "name": "from",
          "type": "address"
        },
        {
          "internalType": "address",
          "name": "to",
          "type": "address"
        },
        {
          "internalType": "uint256",
          "name": "tokenId",
          "type": "uint256"
        }
      ],
      "name": "safeTransferFrom",
      "outputs": [],
      "stateMutability": "nonpayable",
      "type": "function"
    },
    {
      "inputs": [
        {
          "internalType": "address",
          "name": "from",
          "type": "address"
        },
        {
          "internalType": "address",
          "name": "to",
          "type": "address"
        },
        {
          "internalType": "uint256",
          "name": "tokenId",
          "type": "uint256"
        },
        {
          "internalType": "bytes",
          "name": "data",
          "type": "bytes"
        }
      ],
      "name": "safeTransferFrom",
      "outputs": [],
      "stateMutability": "nonpayable",
      "type": "function"
    },
    {
      "inputs": [
        {
          "internalType": "address",
          "name": "operator",
          "type": "address"
        },
        {
          "internalType": "bool",
          "name": "approved",
          "type": "bool"
        }
      ],
      "name": "setApprovalForAll",
      "outputs": [],
      "stateMutability": "nonpayable",
      "type": "function"
    },
    {
      "inputs": [
        {
          "internalType": "string",
          "name": "_newBaseExtension",
          "type": "string"
        }
      ],
      "name": "setBaseExtension",
      "outputs": [],
      "stateMutability": "nonpayable",
      "type": "function"
    },
    {
      "inputs": [
        {
          "internalType": "string",
          "name": "_newBaseURI",
          "type": "string"
        }
      ],
      "name": "setBaseURI",
      "outputs": [],
      "stateMutability": "nonpayable",
      "type": "function"
    },
    {
      "inputs": [
        {
          "internalType": "uint256",
          "name": "_newCost",
          "type": "uint256"
        }
      ],
      "name": "setCost",
      "outputs": [],
      "stateMutability": "nonpayable",
      "type": "function"
    },
    {
      "inputs": [
        {
          "internalType": "uint256",
          "name": "_newmaxMintAmount",
          "type": "uint256"
        }
      ],
      "name": "setmaxMintAmount",
      "outputs": [],
      "stateMutability": "nonpayable",
      "type": "function"
    },
    {
      "inputs": [
        {
          "internalType": "bytes4",
          "name": "interfaceId",
          "type": "bytes4"
        }
      ],
      "name": "supportsInterface",
      "outputs": [
        {
          "internalType": "bool",
          "name": "",
          "type": "bool"
        }
      ],
      "stateMutability": "view",
      "type": "function"
    },
    {
      "inputs": [],
      "name": "symbol",
      "outputs": [
        {
          "internalType": "string",
          "name": "",
          "type": "string"
        }
      ],
      "stateMutability": "view",
      "type": "function"
    },
    {
      "inputs": [
        {
          "internalType": "uint256",
          "name": "index",
          "type": "uint256"
        }
      ],
      "name": "tokenByIndex",
      "outputs": [
        {
          "internalType": "uint256",
          "name": "",
          "type": "uint256"
        }
      ],
      "stateMutability": "view",
      "type": "function"
    },
    {
      "inputs": [
        {
          "internalType": "address",
          "name": "owner",
          "type": "address"
        },
        {
          "internalType": "uint256",
          "name": "index",
          "type": "uint256"
        }
      ],
      "name": "tokenOfOwnerByIndex",
      "outputs": [
        {
          "internalType": "uint256",
          "name": "",
          "type": "uint256"
        }
      ],
      "stateMutability": "view",
      "type": "function"
    },
    {
      "inputs": [
        {
          "internalType": "uint256",
          "name": "tokenId",
          "type": "uint256"
        }
      ],
      "name": "tokenURI",
      "outputs": [
        {
          "internalType": "string",
          "name": "",
          "type": "string"
        }
      ],
      "stateMutability": "view",
      "type": "function"
    },
    {
      "inputs": [],
      "name": "totalSupply",
      "outputs": [
        {
          "internalType": "uint256",
          "name": "",
          "type": "uint256"
        }
      ],
      "stateMutability": "view",
      "type": "function"
    },
    {
      "inputs": [
        {
          "internalType": "address",
          "name": "from",
          "type": "address"
        },
        {
          "internalType": "address",
          "name": "to",
          "type": "address"
        },
        {
          "internalType": "uint256",
          "name": "tokenId",
          "type": "uint256"
        }
      ],
      "name": "transferFrom",
      "outputs": [],
      "stateMutability": "nonpayable",
      "type": "function"
    },
    {
      "inputs": [
        {
          "internalType": "address",
          "name": "newOwner",
          "type": "address"
        }
      ],
      "name": "transferOwnership",
      "outputs": [],
      "stateMutability": "nonpayable",
      "type": "function"
    },
    {
      "inputs": [
        {
          "internalType": "address",
          "name": "_owner",
          "type": "address"
        }
      ],
      "name": "walletOfOwner",
      "outputs": [
        {
          "internalType": "uint256[]",
          "name": "",
          "type": "uint256[]"
        }
      ],
      "stateMutability": "view",
      "type": "function"
    },
    {
      "inputs": [
        {
          "internalType": "address",
          "name": "_user",
          "type": "address"
        }
      ],
      "name": "whitelistUser",
      "outputs": [],
      "stateMutability": "nonpayable",
      "type": "function"
    },
    {
      "inputs": [
        {
          "internalType": "address",
          "name": "",
          "type": "address"
        }
      ],
      "name": "whitelisted",
      "outputs": [
        {
          "internalType": "bool",
          "name": "",
          "type": "bool"
        }
      ],
      "stateMutability": "view",
      "type": "function"
    },
    {
      "inputs": [],
      "name": "withdraw",
      "outputs": [],
      "stateMutability": "payable",
      "type": "function"
    }
  ],
  "transactionHash": "0xebc226439a6691ce4e3d2051903067570182d144e80c623389bf1400ba5263a2",
  "args": [
    "Test Bloczy NFT",
    "BloNFT"
  ],
  "numDeployments": 1,
  "solcInputHash": "0d24b5177618e4aec7c57d847df0448c",
  "bytecode": "0x60806040526040518060400160405280600581526020017f2e6a736f6e000000000000000000000000000000000000000000000000000000815250600c90816200004a919062001179565b506000600d556005600e556005600f556000601060006101000a81548160ff0219169083151502179055503480156200008257600080fd5b5060405162005d4e38038062005d4e8339818101604052810190620000a89190620013c4565b81818160009081620000bb919062001179565b508060019081620000cd919062001179565b505050620000f0620000e46200013560201b60201c565b6200013d60201b60201c565b6200011a60405180608001604052806058815260200162005cf6605891396200020360201b60201c565b6200012d3360016200022860201b60201c565b505062001aa9565b600033905090565b6000600a60009054906101000a900473ffffffffffffffffffffffffffffffffffffffff16905081600a60006101000a81548173ffffffffffffffffffffffffffffffffffffffff021916908373ffffffffffffffffffffffffffffffffffffffff1602179055508173ffffffffffffffffffffffffffffffffffffffff168173ffffffffffffffffffffffffffffffffffffffff167f8be0079c531659141344cd1fd0a4f28419497f9722a3daafe3b4186f6b6457e060405160405180910390a35050565b620002136200039760201b60201c565b80600b908162000224919062001179565b5050565b60006200023a6200042860201b60201c565b9050601060009054906101000a900460ff16156200025757600080fd5b600082116200026557600080fd5b600f548211156200027557600080fd5b600e54828262000286919062001478565b11156200029257600080fd5b620002a26200043560201b60201c565b73ffffffffffffffffffffffffffffffffffffffff163373ffffffffffffffffffffffffffffffffffffffff16146200034d5760011515601160003373ffffffffffffffffffffffffffffffffffffffff1673ffffffffffffffffffffffffffffffffffffffff16815260200190815260200160002060009054906101000a900460ff161515146200034c5781600d546200033e9190620014b3565b3410156200034b57600080fd5b5b5b6000600190505b82811162000391576200037b8482846200036f919062001478565b6200045f60201b60201c565b80806200038890620014fe565b91505062000354565b50505050565b620003a76200013560201b60201c565b73ffffffffffffffffffffffffffffffffffffffff16620003cd6200043560201b60201c565b73ffffffffffffffffffffffffffffffffffffffff161462000426576040517f08c379a00000000000000000000000000000000000000000000000000000000081526004016200041d90620015ac565b60405180910390fd5b565b6000600880549050905090565b6000600a60009054906101000a900473ffffffffffffffffffffffffffffffffffffffff16905090565b620004818282604051806020016040528060008152506200048560201b60201c565b5050565b620004978383620004f360201b60201c565b620004ac60008484846200073960201b60201c565b620004ee576040517f08c379a0000000000000000000000000000000000000000000000000000000008152600401620004e59062001644565b60405180910390fd5b505050565b600073ffffffffffffffffffffffffffffffffffffffff168273ffffffffffffffffffffffffffffffffffffffff160362000565576040517f08c379a00000000000000000000000000000000000000000000000000000000081526004016200055c90620016b6565b60405180910390fd5b6200057681620008dd60201b60201c565b15620005b9576040517f08c379a0000000000000000000000000000000000000000000000000000000008152600401620005b09062001728565b60405180910390fd5b620005cf6000838360016200092660201b60201c565b620005e081620008dd60201b60201c565b1562000623576040517f08c379a00000000000000000000000000000000000000000000000000000000081526004016200061a9062001728565b60405180910390fd5b6001600360008473ffffffffffffffffffffffffffffffffffffffff1673ffffffffffffffffffffffffffffffffffffffff16815260200190815260200160002060008282540192505081905550816002600083815260200190815260200160002060006101000a81548173ffffffffffffffffffffffffffffffffffffffff021916908373ffffffffffffffffffffffffffffffffffffffff160217905550808273ffffffffffffffffffffffffffffffffffffffff16600073ffffffffffffffffffffffffffffffffffffffff167fddf252ad1be2c89b69c2b068fc378daa952ba7f163c4a11628f55a4df523b3ef60405160405180910390a46200073560008383600162000ab560201b60201c565b5050565b6000620007628473ffffffffffffffffffffffffffffffffffffffff1662000abb60201b60201c565b15620008d0578373ffffffffffffffffffffffffffffffffffffffff1663150b7a02620007946200013560201b60201c565b8786866040518563ffffffff1660e01b8152600401620007b89493929190620017fd565b6020604051808303816000875af1925050508015620007f757506040513d601f19601f82011682018060405250810190620007f49190620018ae565b60015b6200087f573d80600081146200082a576040519150601f19603f3d011682016040523d82523d6000602084013e6200082f565b606091505b50600081510362000877576040517f08c379a00000000000000000000000000000000000000000000000000000000081526004016200086e9062001644565b60405180910390fd5b805181602001fd5b63150b7a0260e01b7bffffffffffffffffffffffffffffffffffffffffffffffffffffffff1916817bffffffffffffffffffffffffffffffffffffffffffffffffffffffff191614915050620008d5565b600190505b949350505050565b60008073ffffffffffffffffffffffffffffffffffffffff16620009078362000ade60201b60201c565b73ffffffffffffffffffffffffffffffffffffffff1614159050919050565b6200093a8484848462000b1b60201b60201c565b600181111562000981576040517f08c379a0000000000000000000000000000000000000000000000000000000008152600401620009789062001956565b60405180910390fd5b6000829050600073ffffffffffffffffffffffffffffffffffffffff168573ffffffffffffffffffffffffffffffffffffffff1603620009d257620009cc8162000b2160201b60201c565b62000a1a565b8373ffffffffffffffffffffffffffffffffffffffff168573ffffffffffffffffffffffffffffffffffffffff161462000a195762000a18858262000b6a60201b60201c565b5b5b600073ffffffffffffffffffffffffffffffffffffffff168473ffffffffffffffffffffffffffffffffffffffff160362000a665762000a608162000ce260201b60201c565b62000aae565b8473ffffffffffffffffffffffffffffffffffffffff168473ffffffffffffffffffffffffffffffffffffffff161462000aad5762000aac848262000dbe60201b60201c565b5b5b5050505050565b50505050565b6000808273ffffffffffffffffffffffffffffffffffffffff163b119050919050565b60006002600083815260200190815260200160002060009054906101000a900473ffffffffffffffffffffffffffffffffffffffff169050919050565b50505050565b6008805490506009600083815260200190815260200160002081905550600881908060018154018082558091505060019003906000526020600020016000909190919091505550565b6000600162000b7f8462000e4560201b60201c565b62000b8b919062001978565b905060006007600084815260200190815260200160002054905081811462000c71576000600660008673ffffffffffffffffffffffffffffffffffffffff1673ffffffffffffffffffffffffffffffffffffffff168152602001908152602001600020600084815260200190815260200160002054905080600660008773ffffffffffffffffffffffffffffffffffffffff1673ffffffffffffffffffffffffffffffffffffffff168152602001908152602001600020600084815260200190815260200160002081905550816007600083815260200190815260200160002081905550505b6007600084815260200190815260200160002060009055600660008573ffffffffffffffffffffffffffffffffffffffff1673ffffffffffffffffffffffffffffffffffffffff16815260200190815260200160002060008381526020019081526020016000206000905550505050565b6000600160088054905062000cf8919062001978565b905060006009600084815260200190815260200160002054905060006008838154811062000d2b5762000d2a620019b3565b5b90600052602060002001549050806008838154811062000d505762000d4f620019b3565b5b90600052602060002001819055508160096000838152602001908152602001600020819055506009600085815260200190815260200160002060009055600880548062000da25762000da1620019e2565b5b6001900381819060005260206000200160009055905550505050565b600062000dd18362000e4560201b60201c565b905081600660008573ffffffffffffffffffffffffffffffffffffffff1673ffffffffffffffffffffffffffffffffffffffff168152602001908152602001600020600083815260200190815260200160002081905550806007600084815260200190815260200160002081905550505050565b60008073ffffffffffffffffffffffffffffffffffffffff168273ffffffffffffffffffffffffffffffffffffffff160362000eb8576040517f08c379a000000000000000000000000000000000000000000000000000000000815260040162000eaf9062001a87565b60405180910390fd5b600360008373ffffffffffffffffffffffffffffffffffffffff1673ffffffffffffffffffffffffffffffffffffffff168152602001908152602001600020549050919050565b600081519050919050565b7f4e487b7100000000000000000000000000000000000000000000000000000000600052604160045260246000fd5b7f4e487b7100000000000000000000000000000000000000000000000000000000600052602260045260246000fd5b6000600282049050600182168062000f8157607f821691505b60208210810362000f975762000f9662000f39565b5b50919050565b60008190508160005260206000209050919050565b60006020601f8301049050919050565b600082821b905092915050565b600060088302620010017fffffffffffffffffffffffffffffffffffffffffffffffffffffffffffffffff8262000fc2565b6200100d868362000fc2565b95508019841693508086168417925050509392505050565b6000819050919050565b6000819050919050565b60006200105a620010546200104e8462001025565b6200102f565b62001025565b9050919050565b6000819050919050565b620010768362001039565b6200108e620010858262001061565b84845462000fcf565b825550505050565b600090565b620010a562001096565b620010b28184846200106b565b505050565b5b81811015620010da57620010ce6000826200109b565b600181019050620010b8565b5050565b601f8211156200112957620010f38162000f9d565b620010fe8462000fb2565b810160208510156200110e578190505b620011266200111d8562000fb2565b830182620010b7565b50505b505050565b600082821c905092915050565b60006200114e600019846008026200112e565b1980831691505092915050565b60006200116983836200113b565b9150826002028217905092915050565b620011848262000eff565b67ffffffffffffffff811115620011a0576200119f62000f0a565b5b620011ac825462000f68565b620011b9828285620010de565b600060209050601f831160018114620011f15760008415620011dc578287015190505b620011e885826200115b565b86555062001258565b601f198416620012018662000f9d565b60005b828110156200122b5784890151825560018201915060208501945060208101905062001204565b868310156200124b578489015162001247601f8916826200113b565b8355505b6001600288020188555050505b505050505050565b6000604051905090565b600080fd5b600080fd5b600080fd5b600080fd5b6000601f19601f8301169050919050565b6200129a826200127e565b810181811067ffffffffffffffff82111715620012bc57620012bb62000f0a565b5b80604052505050565b6000620012d162001260565b9050620012df82826200128f565b919050565b600067ffffffffffffffff82111562001302576200130162000f0a565b5b6200130d826200127e565b9050602081019050919050565b60005b838110156200133a5780820151818401526020810190506200131d565b60008484015250505050565b60006200135d6200135784620012e4565b620012c5565b9050828152602081018484840111156200137c576200137b62001279565b5b620013898482856200131a565b509392505050565b600082601f830112620013a957620013a862001274565b5b8151620013bb84826020860162001346565b91505092915050565b60008060408385031215620013de57620013dd6200126a565b5b600083015167ffffffffffffffff811115620013ff57620013fe6200126f565b5b6200140d8582860162001391565b925050602083015167ffffffffffffffff8111156200143157620014306200126f565b5b6200143f8582860162001391565b9150509250929050565b7f4e487b7100000000000000000000000000000000000000000000000000000000600052601160045260246000fd5b6000620014858262001025565b9150620014928362001025565b9250828201905080821115620014ad57620014ac62001449565b5b92915050565b6000620014c08262001025565b9150620014cd8362001025565b9250828202620014dd8162001025565b91508282048414831517620014f757620014f662001449565b5b5092915050565b60006200150b8262001025565b91507fffffffffffffffffffffffffffffffffffffffffffffffffffffffffffffffff820362001540576200153f62001449565b5b600182019050919050565b600082825260208201905092915050565b7f4f776e61626c653a2063616c6c6572206973206e6f7420746865206f776e6572600082015250565b6000620015946020836200154b565b9150620015a1826200155c565b602082019050919050565b60006020820190508181036000830152620015c78162001585565b9050919050565b7f4552433732313a207472616e7366657220746f206e6f6e20455243373231526560008201527f63656976657220696d706c656d656e7465720000000000000000000000000000602082015250565b60006200162c6032836200154b565b91506200163982620015ce565b604082019050919050565b600060208201905081810360008301526200165f816200161d565b9050919050565b7f4552433732313a206d696e7420746f20746865207a65726f2061646472657373600082015250565b60006200169e6020836200154b565b9150620016ab8262001666565b602082019050919050565b60006020820190508181036000830152620016d1816200168f565b9050919050565b7f4552433732313a20746f6b656e20616c7265616479206d696e74656400000000600082015250565b600062001710601c836200154b565b91506200171d82620016d8565b602082019050919050565b60006020820190508181036000830152620017438162001701565b9050919050565b600073ffffffffffffffffffffffffffffffffffffffff82169050919050565b600062001777826200174a565b9050919050565b62001789816200176a565b82525050565b6200179a8162001025565b82525050565b600081519050919050565b600082825260208201905092915050565b6000620017c982620017a0565b620017d58185620017ab565b9350620017e78185602086016200131a565b620017f2816200127e565b840191505092915050565b60006080820190506200181460008301876200177e565b6200182360208301866200177e565b6200183260408301856200178f565b8181036060830152620018468184620017bc565b905095945050505050565b60007fffffffff0000000000000000000000000000000000000000000000000000000082169050919050565b620018888162001851565b81146200189457600080fd5b50565b600081519050620018a8816200187d565b92915050565b600060208284031215620018c757620018c66200126a565b5b6000620018d78482850162001897565b91505092915050565b7f455243373231456e756d657261626c653a20636f6e736563757469766520747260008201527f616e7366657273206e6f7420737570706f727465640000000000000000000000602082015250565b60006200193e6035836200154b565b91506200194b82620018e0565b604082019050919050565b6000602082019050818103600083015262001971816200192f565b9050919050565b6000620019858262001025565b9150620019928362001025565b9250828203905081811115620019ad57620019ac62001449565b5b92915050565b7f4e487b7100000000000000000000000000000000000000000000000000000000600052603260045260246000fd5b7f4e487b7100000000000000000000000000000000000000000000000000000000600052603160045260246000fd5b7f4552433732313a2061646472657373207a65726f206973206e6f74206120766160008201527f6c6964206f776e65720000000000000000000000000000000000000000000000602082015250565b600062001a6f6029836200154b565b915062001a7c8262001a11565b604082019050919050565b6000602082019050818103600083015262001aa28162001a60565b9050919050565b61423d8062001ab96000396000f3fe60806040526004361061020f5760003560e01c806355f804b311610118578063a22cb465116100a0578063d5abeb011161006f578063d5abeb011461077f578063d936547e146107aa578063da3ef23f146107e7578063e985e9c514610810578063f2fde38b1461084d5761020f565b8063a22cb465146106c5578063b88d4fde146106ee578063c668286214610717578063c87b56dd146107425761020f565b806370a08231116100e757806370a08231146105f2578063715018a61461062f5780637f00c7a6146106465780638da5cb5b1461066f57806395d89b411461069a5761020f565b806355f804b3146105365780635c975abb1461055f5780636352211e1461058a5780636c0360eb146105c75761020f565b80632f745c591161019b57806342842e0e1161016a57806342842e0e14610441578063438b63001461046a57806344a0d68a146104a75780634a4c560d146104d05780634f6ccce7146104f95761020f565b80632f745c59146103b557806330cc7ae0146103f25780633ccfd60b1461041b57806340c10f19146104255761020f565b8063095ea7b3116101e2578063095ea7b3146102e257806313faede61461030b57806318160ddd14610336578063239c70ae1461036157806323b872dd1461038c5761020f565b806301ffc9a71461021457806302329a291461025157806306fdde031461027a578063081812fc146102a5575b600080fd5b34801561022057600080fd5b5061023b60048036038101906102369190612b29565b610876565b6040516102489190612b71565b60405180910390f35b34801561025d57600080fd5b5061027860048036038101906102739190612bb8565b6108f0565b005b34801561028657600080fd5b5061028f610915565b60405161029c9190612c75565b60405180910390f35b3480156102b157600080fd5b506102cc60048036038101906102c79190612ccd565b6109a7565b6040516102d99190612d3b565b60405180910390f35b3480156102ee57600080fd5b5061030960048036038101906103049190612d82565b6109ed565b005b34801561031757600080fd5b50610320610b04565b60405161032d9190612dd1565b60405180910390f35b34801561034257600080fd5b5061034b610b0a565b6040516103589190612dd1565b60405180910390f35b34801561036d57600080fd5b50610376610b17565b6040516103839190612dd1565b60405180910390f35b34801561039857600080fd5b506103b360048036038101906103ae9190612dec565b610b1d565b005b3480156103c157600080fd5b506103dc60048036038101906103d79190612d82565b610b7d565b6040516103e99190612dd1565b60405180910390f35b3480156103fe57600080fd5b5061041960048036038101906104149190612e3f565b610c22565b005b610423610c85565b005b61043f600480360381019061043a9190612d82565b610d0d565b005b34801561044d57600080fd5b5061046860048036038101906104639190612dec565b610e53565b005b34801561047657600080fd5b50610491600480360381019061048c9190612e3f565b610e73565b60405161049e9190612f2a565b60405180910390f35b3480156104b357600080fd5b506104ce60048036038101906104c99190612ccd565b610f21565b005b3480156104dc57600080fd5b506104f760048036038101906104f29190612e3f565b610f33565b005b34801561050557600080fd5b50610520600480360381019061051b9190612ccd565b610f96565b60405161052d9190612dd1565b60405180910390f35b34801561054257600080fd5b5061055d60048036038101906105589190613081565b611007565b005b34801561056b57600080fd5b50610574611022565b6040516105819190612b71565b60405180910390f35b34801561059657600080fd5b506105b160048036038101906105ac9190612ccd565b611035565b6040516105be9190612d3b565b60405180910390f35b3480156105d357600080fd5b506105dc6110bb565b6040516105e99190612c75565b60405180910390f35b3480156105fe57600080fd5b5061061960048036038101906106149190612e3f565b611149565b6040516106269190612dd1565b60405180910390f35b34801561063b57600080fd5b50610644611200565b005b34801561065257600080fd5b5061066d60048036038101906106689190612ccd565b611214565b005b34801561067b57600080fd5b50610684611226565b6040516106919190612d3b565b60405180910390f35b3480156106a657600080fd5b506106af611250565b6040516106bc9190612c75565b60405180910390f35b3480156106d157600080fd5b506106ec60048036038101906106e791906130ca565b6112e2565b005b3480156106fa57600080fd5b50610715600480360381019061071091906131ab565b6112f8565b005b34801561072357600080fd5b5061072c61135a565b6040516107399190612c75565b60405180910390f35b34801561074e57600080fd5b5061076960048036038101906107649190612ccd565b6113e8565b6040516107769190612c75565b60405180910390f35b34801561078b57600080fd5b50610794611492565b6040516107a19190612dd1565b60405180910390f35b3480156107b657600080fd5b506107d160048036038101906107cc9190612e3f565b611498565b6040516107de9190612b71565b60405180910390f35b3480156107f357600080fd5b5061080e60048036038101906108099190613081565b6114b8565b005b34801561081c57600080fd5b506108376004803603810190610832919061322e565b6114d3565b6040516108449190612b71565b60405180910390f35b34801561085957600080fd5b50610874600480360381019061086f9190612e3f565b611567565b005b60007f780e9d63000000000000000000000000000000000000000000000000000000007bffffffffffffffffffffffffffffffffffffffffffffffffffffffff1916827bffffffffffffffffffffffffffffffffffffffffffffffffffffffff191614806108e957506108e8826115ea565b5b9050919050565b6108f86116cc565b80601060006101000a81548160ff02191690831515021790555050565b6060600080546109249061329d565b80601f01602080910402602001604051908101604052809291908181526020018280546109509061329d565b801561099d5780601f106109725761010080835404028352916020019161099d565b820191906000526020600020905b81548152906001019060200180831161098057829003601f168201915b5050505050905090565b60006109b28261174a565b6004600083815260200190815260200160002060009054906101000a900473ffffffffffffffffffffffffffffffffffffffff169050919050565b60006109f882611035565b90508073ffffffffffffffffffffffffffffffffffffffff168373ffffffffffffffffffffffffffffffffffffffff1603610a68576040517f08c379a0000000000000000000000000000000000000000000000000000000008152600401610a5f90613340565b60405180910390fd5b8073ffffffffffffffffffffffffffffffffffffffff16610a87611795565b73ffffffffffffffffffffffffffffffffffffffff161480610ab65750610ab581610ab0611795565b6114d3565b5b610af5576040517f08c379a0000000000000000000000000000000000000000000000000000000008152600401610aec906133d2565b60405180910390fd5b610aff838361179d565b505050565b600d5481565b6000600880549050905090565b600f5481565b610b2e610b28611795565b82611856565b610b6d576040517f08c379a0000000000000000000000000000000000000000000000000000000008152600401610b6490613464565b60405180910390fd5b610b788383836118eb565b505050565b6000610b8883611149565b8210610bc9576040517f08c379a0000000000000000000000000000000000000000000000000000000008152600401610bc0906134f6565b60405180910390fd5b600660008473ffffffffffffffffffffffffffffffffffffffff1673ffffffffffffffffffffffffffffffffffffffff168152602001908152602001600020600083815260200190815260200160002054905092915050565b610c2a6116cc565b6000601160008373ffffffffffffffffffffffffffffffffffffffff1673ffffffffffffffffffffffffffffffffffffffff16815260200190815260200160002060006101000a81548160ff02191690831515021790555050565b610c8d6116cc565b6000610c97611226565b73ffffffffffffffffffffffffffffffffffffffff1647604051610cba90613547565b60006040518083038185875af1925050503d8060008114610cf7576040519150601f19603f3d011682016040523d82523d6000602084013e610cfc565b606091505b5050905080610d0a57600080fd5b50565b6000610d17610b0a565b9050601060009054906101000a900460ff1615610d3357600080fd5b60008211610d4057600080fd5b600f54821115610d4f57600080fd5b600e548282610d5e919061358b565b1115610d6957600080fd5b610d71611226565b73ffffffffffffffffffffffffffffffffffffffff163373ffffffffffffffffffffffffffffffffffffffff1614610e175760011515601160003373ffffffffffffffffffffffffffffffffffffffff1673ffffffffffffffffffffffffffffffffffffffff16815260200190815260200160002060009054906101000a900460ff16151514610e165781600d54610e0991906135bf565b341015610e1557600080fd5b5b5b6000600190505b828111610e4d57610e3a848284610e35919061358b565b611be4565b8080610e4590613601565b915050610e1e565b50505050565b610e6e838383604051806020016040528060008152506112f8565b505050565b60606000610e8083611149565b905060008167ffffffffffffffff811115610e9e57610e9d612f56565b5b604051908082528060200260200182016040528015610ecc5781602001602082028036833780820191505090505b50905060005b82811015610f1657610ee48582610b7d565b828281518110610ef757610ef6613649565b5b6020026020010181815250508080610f0e90613601565b915050610ed2565b508092505050919050565b610f296116cc565b80600d8190555050565b610f3b6116cc565b6001601160008373ffffffffffffffffffffffffffffffffffffffff1673ffffffffffffffffffffffffffffffffffffffff16815260200190815260200160002060006101000a81548160ff02191690831515021790555050565b6000610fa0610b0a565b8210610fe1576040517f08c379a0000000000000000000000000000000000000000000000000000000008152600401610fd8906136ea565b60405180910390fd5b60088281548110610ff557610ff4613649565b5b90600052602060002001549050919050565b61100f6116cc565b80600b908161101e91906138b6565b5050565b601060009054906101000a900460ff1681565b60008061104183611c02565b9050600073ffffffffffffffffffffffffffffffffffffffff168173ffffffffffffffffffffffffffffffffffffffff16036110b2576040517f08c379a00000000000000000000000000000000000000000000000000000000081526004016110a9906139d4565b60405180910390fd5b80915050919050565b600b80546110c89061329d565b80601f01602080910402602001604051908101604052809291908181526020018280546110f49061329d565b80156111415780601f1061111657610100808354040283529160200191611141565b820191906000526020600020905b81548152906001019060200180831161112457829003601f168201915b505050505081565b60008073ffffffffffffffffffffffffffffffffffffffff168273ffffffffffffffffffffffffffffffffffffffff16036111b9576040517f08c379a00000000000000000000000000000000000000000000000000000000081526004016111b090613a66565b60405180910390fd5b600360008373ffffffffffffffffffffffffffffffffffffffff1673ffffffffffffffffffffffffffffffffffffffff168152602001908152602001600020549050919050565b6112086116cc565b6112126000611c3f565b565b61121c6116cc565b80600f8190555050565b6000600a60009054906101000a900473ffffffffffffffffffffffffffffffffffffffff16905090565b60606001805461125f9061329d565b80601f016020809104026020016040519081016040528092919081815260200182805461128b9061329d565b80156112d85780601f106112ad576101008083540402835291602001916112d8565b820191906000526020600020905b8154815290600101906020018083116112bb57829003601f168201915b5050505050905090565b6112f46112ed611795565b8383611d05565b5050565b611309611303611795565b83611856565b611348576040517f08c379a000000000000000000000000000000000000000000000000000000000815260040161133f90613464565b60405180910390fd5b61135484848484611e71565b50505050565b600c80546113679061329d565b80601f01602080910402602001604051908101604052809291908181526020018280546113939061329d565b80156113e05780601f106113b5576101008083540402835291602001916113e0565b820191906000526020600020905b8154815290600101906020018083116113c357829003601f168201915b505050505081565b60606113f382611ecd565b611432576040517f08c379a000000000000000000000000000000000000000000000000000000000815260040161142990613af8565b60405180910390fd5b600061143c611f0e565b9050600081511161145c576040518060200160405280600081525061148a565b8061146684611fa0565b600c60405160200161147a93929190613bd7565b6040516020818303038152906040525b915050919050565b600e5481565b60116020528060005260406000206000915054906101000a900460ff1681565b6114c06116cc565b80600c90816114cf91906138b6565b5050565b6000600560008473ffffffffffffffffffffffffffffffffffffffff1673ffffffffffffffffffffffffffffffffffffffff16815260200190815260200160002060008373ffffffffffffffffffffffffffffffffffffffff1673ffffffffffffffffffffffffffffffffffffffff16815260200190815260200160002060009054906101000a900460ff16905092915050565b61156f6116cc565b600073ffffffffffffffffffffffffffffffffffffffff168173ffffffffffffffffffffffffffffffffffffffff16036115de576040517f08c379a00000000000000000000000000000000000000000000000000000000081526004016115d590613c7a565b60405180910390fd5b6115e781611c3f565b50565b60007f80ac58cd000000000000000000000000000000000000000000000000000000007bffffffffffffffffffffffffffffffffffffffffffffffffffffffff1916827bffffffffffffffffffffffffffffffffffffffffffffffffffffffff191614806116b557507f5b5e139f000000000000000000000000000000000000000000000000000000007bffffffffffffffffffffffffffffffffffffffffffffffffffffffff1916827bffffffffffffffffffffffffffffffffffffffffffffffffffffffff1916145b806116c557506116c48261206e565b5b9050919050565b6116d4611795565b73ffffffffffffffffffffffffffffffffffffffff166116f2611226565b73ffffffffffffffffffffffffffffffffffffffff1614611748576040517f08c379a000000000000000000000000000000000000000000000000000000000815260040161173f90613ce6565b60405180910390fd5b565b61175381611ecd565b611792576040517f08c379a0000000000000000000000000000000000000000000000000000000008152600401611789906139d4565b60405180910390fd5b50565b600033905090565b816004600083815260200190815260200160002060006101000a81548173ffffffffffffffffffffffffffffffffffffffff021916908373ffffffffffffffffffffffffffffffffffffffff160217905550808273ffffffffffffffffffffffffffffffffffffffff1661181083611035565b73ffffffffffffffffffffffffffffffffffffffff167f8c5be1e5ebec7d5bd14f71427d1e84f3dd0314c0f7b2291e5b200ac8c7c3b92560405160405180910390a45050565b60008061186283611035565b90508073ffffffffffffffffffffffffffffffffffffffff168473ffffffffffffffffffffffffffffffffffffffff1614806118a457506118a381856114d3565b5b806118e257508373ffffffffffffffffffffffffffffffffffffffff166118ca846109a7565b73ffffffffffffffffffffffffffffffffffffffff16145b91505092915050565b8273ffffffffffffffffffffffffffffffffffffffff1661190b82611035565b73ffffffffffffffffffffffffffffffffffffffff1614611961576040517f08c379a000000000000000000000000000000000000000000000000000000000815260040161195890613d78565b60405180910390fd5b600073ffffffffffffffffffffffffffffffffffffffff168273ffffffffffffffffffffffffffffffffffffffff16036119d0576040517f08c379a00000000000000000000000000000000000000000000000000000000081526004016119c790613e0a565b60405180910390fd5b6119dd83838360016120d8565b8273ffffffffffffffffffffffffffffffffffffffff166119fd82611035565b73ffffffffffffffffffffffffffffffffffffffff1614611a53576040517f08c379a0000000000000000000000000000000000000000000000000000000008152600401611a4a90613d78565b60405180910390fd5b6004600082815260200190815260200160002060006101000a81549073ffffffffffffffffffffffffffffffffffffffff02191690556001600360008573ffffffffffffffffffffffffffffffffffffffff1673ffffffffffffffffffffffffffffffffffffffff168152602001908152602001600020600082825403925050819055506001600360008473ffffffffffffffffffffffffffffffffffffffff1673ffffffffffffffffffffffffffffffffffffffff16815260200190815260200160002060008282540192505081905550816002600083815260200190815260200160002060006101000a81548173ffffffffffffffffffffffffffffffffffffffff021916908373ffffffffffffffffffffffffffffffffffffffff160217905550808273ffffffffffffffffffffffffffffffffffffffff168473ffffffffffffffffffffffffffffffffffffffff167fddf252ad1be2c89b69c2b068fc378daa952ba7f163c4a11628f55a4df523b3ef60405160405180910390a4611bdf8383836001612236565b505050565b611bfe82826040518060200160405280600081525061223c565b5050565b60006002600083815260200190815260200160002060009054906101000a900473ffffffffffffffffffffffffffffffffffffffff169050919050565b6000600a60009054906101000a900473ffffffffffffffffffffffffffffffffffffffff16905081600a60006101000a81548173ffffffffffffffffffffffffffffffffffffffff021916908373ffffffffffffffffffffffffffffffffffffffff1602179055508173ffffffffffffffffffffffffffffffffffffffff168173ffffffffffffffffffffffffffffffffffffffff167f8be0079c531659141344cd1fd0a4f28419497f9722a3daafe3b4186f6b6457e060405160405180910390a35050565b8173ffffffffffffffffffffffffffffffffffffffff168373ffffffffffffffffffffffffffffffffffffffff1603611d73576040517f08c379a0000000000000000000000000000000000000000000000000000000008152600401611d6a90613e76565b60405180910390fd5b80600560008573ffffffffffffffffffffffffffffffffffffffff1673ffffffffffffffffffffffffffffffffffffffff16815260200190815260200160002060008473ffffffffffffffffffffffffffffffffffffffff1673ffffffffffffffffffffffffffffffffffffffff16815260200190815260200160002060006101000a81548160ff0219169083151502179055508173ffffffffffffffffffffffffffffffffffffffff168373ffffffffffffffffffffffffffffffffffffffff167f17307eab39ab6107e8899845ad3d59bd9653f200f220920489ca2b5937696c3183604051611e649190612b71565b60405180910390a3505050565b611e7c8484846118eb565b611e8884848484612297565b611ec7576040517f08c379a0000000000000000000000000000000000000000000000000000000008152600401611ebe90613f08565b60405180910390fd5b50505050565b60008073ffffffffffffffffffffffffffffffffffffffff16611eef83611c02565b73ffffffffffffffffffffffffffffffffffffffff1614159050919050565b6060600b8054611f1d9061329d565b80601f0160208091040260200160405190810160405280929190818152602001828054611f499061329d565b8015611f965780601f10611f6b57610100808354040283529160200191611f96565b820191906000526020600020905b815481529060010190602001808311611f7957829003601f168201915b5050505050905090565b606060006001611faf8461241e565b01905060008167ffffffffffffffff811115611fce57611fcd612f56565b5b6040519080825280601f01601f1916602001820160405280156120005781602001600182028036833780820191505090505b509050600082602001820190505b600115612063578080600190039150507f3031323334353637383961626364656600000000000000000000000000000000600a86061a8153600a858161205757612056613f28565b5b0494506000850361200e575b819350505050919050565b60007f01ffc9a7000000000000000000000000000000000000000000000000000000007bffffffffffffffffffffffffffffffffffffffffffffffffffffffff1916827bffffffffffffffffffffffffffffffffffffffffffffffffffffffff1916149050919050565b6120e484848484612571565b6001811115612128576040517f08c379a000000000000000000000000000000000000000000000000000000000815260040161211f90613fc9565b60405180910390fd5b6000829050600073ffffffffffffffffffffffffffffffffffffffff168573ffffffffffffffffffffffffffffffffffffffff160361216f5761216a81612577565b6121ae565b8373ffffffffffffffffffffffffffffffffffffffff168573ffffffffffffffffffffffffffffffffffffffff16146121ad576121ac85826125c0565b5b5b600073ffffffffffffffffffffffffffffffffffffffff168473ffffffffffffffffffffffffffffffffffffffff16036121f0576121eb8161272d565b61222f565b8473ffffffffffffffffffffffffffffffffffffffff168473ffffffffffffffffffffffffffffffffffffffff161461222e5761222d84826127fe565b5b5b5050505050565b50505050565b612246838361287d565b6122536000848484612297565b612292576040517f08c379a000000000000000000000000000000000000000000000000000000000815260040161228990613f08565b60405180910390fd5b505050565b60006122b88473ffffffffffffffffffffffffffffffffffffffff16612a9a565b15612411578373ffffffffffffffffffffffffffffffffffffffff1663150b7a026122e1611795565b8786866040518563ffffffff1660e01b8152600401612303949392919061403e565b6020604051808303816000875af192505050801561233f57506040513d601f19601f8201168201806040525081019061233c919061409f565b60015b6123c1573d806000811461236f576040519150601f19603f3d011682016040523d82523d6000602084013e612374565b606091505b5060008151036123b9576040517f08c379a00000000000000000000000000000000000000000000000000000000081526004016123b090613f08565b60405180910390fd5b805181602001fd5b63150b7a0260e01b7bffffffffffffffffffffffffffffffffffffffffffffffffffffffff1916817bffffffffffffffffffffffffffffffffffffffffffffffffffffffff191614915050612416565b600190505b949350505050565b600080600090507a184f03e93ff9f4daa797ed6e38ed64bf6a1f010000000000000000831061247c577a184f03e93ff9f4daa797ed6e38ed64bf6a1f010000000000000000838161247257612471613f28565b5b0492506040810190505b6d04ee2d6d415b85acef810000000083106124b9576d04ee2d6d415b85acef810000000083816124af576124ae613f28565b5b0492506020810190505b662386f26fc1000083106124e857662386f26fc1000083816124de576124dd613f28565b5b0492506010810190505b6305f5e1008310612511576305f5e100838161250757612506613f28565b5b0492506008810190505b612710831061253657612710838161252c5761252b613f28565b5b0492506004810190505b60648310612559576064838161254f5761254e613f28565b5b0492506002810190505b600a8310612568576001810190505b80915050919050565b50505050565b6008805490506009600083815260200190815260200160002081905550600881908060018154018082558091505060019003906000526020600020016000909190919091505550565b600060016125cd84611149565b6125d791906140cc565b90506000600760008481526020019081526020016000205490508181146126bc576000600660008673ffffffffffffffffffffffffffffffffffffffff1673ffffffffffffffffffffffffffffffffffffffff168152602001908152602001600020600084815260200190815260200160002054905080600660008773ffffffffffffffffffffffffffffffffffffffff1673ffffffffffffffffffffffffffffffffffffffff168152602001908152602001600020600084815260200190815260200160002081905550816007600083815260200190815260200160002081905550505b6007600084815260200190815260200160002060009055600660008573ffffffffffffffffffffffffffffffffffffffff1673ffffffffffffffffffffffffffffffffffffffff16815260200190815260200160002060008381526020019081526020016000206000905550505050565b6000600160088054905061274191906140cc565b905060006009600084815260200190815260200160002054905060006008838154811061277157612770613649565b5b90600052602060002001549050806008838154811061279357612792613649565b5b9060005260206000200181905550816009600083815260200190815260200160002081905550600960008581526020019081526020016000206000905560088054806127e2576127e1614100565b5b6001900381819060005260206000200160009055905550505050565b600061280983611149565b905081600660008573ffffffffffffffffffffffffffffffffffffffff1673ffffffffffffffffffffffffffffffffffffffff168152602001908152602001600020600083815260200190815260200160002081905550806007600084815260200190815260200160002081905550505050565b600073ffffffffffffffffffffffffffffffffffffffff168273ffffffffffffffffffffffffffffffffffffffff16036128ec576040517f08c379a00000000000000000000000000000000000000000000000000000000081526004016128e39061417b565b60405180910390fd5b6128f581611ecd565b15612935576040517f08c379a000000000000000000000000000000000000000000000000000000000815260040161292c906141e7565b60405180910390fd5b6129436000838360016120d8565b61294c81611ecd565b1561298c576040517f08c379a0000000000000000000000000000000000000000000000000000000008152600401612983906141e7565b60405180910390fd5b6001600360008473ffffffffffffffffffffffffffffffffffffffff1673ffffffffffffffffffffffffffffffffffffffff16815260200190815260200160002060008282540192505081905550816002600083815260200190815260200160002060006101000a81548173ffffffffffffffffffffffffffffffffffffffff021916908373ffffffffffffffffffffffffffffffffffffffff160217905550808273ffffffffffffffffffffffffffffffffffffffff16600073ffffffffffffffffffffffffffffffffffffffff167fddf252ad1be2c89b69c2b068fc378daa952ba7f163c4a11628f55a4df523b3ef60405160405180910390a4612a96600083836001612236565b5050565b6000808273ffffffffffffffffffffffffffffffffffffffff163b119050919050565b6000604051905090565b600080fd5b600080fd5b60007fffffffff0000000000000000000000000000000000000000000000000000000082169050919050565b612b0681612ad1565b8114612b1157600080fd5b50565b600081359050612b2381612afd565b92915050565b600060208284031215612b3f57612b3e612ac7565b5b6000612b4d84828501612b14565b91505092915050565b60008115159050919050565b612b6b81612b56565b82525050565b6000602082019050612b866000830184612b62565b92915050565b612b9581612b56565b8114612ba057600080fd5b50565b600081359050612bb281612b8c565b92915050565b600060208284031215612bce57612bcd612ac7565b5b6000612bdc84828501612ba3565b91505092915050565b600081519050919050565b600082825260208201905092915050565b60005b83811015612c1f578082015181840152602081019050612c04565b60008484015250505050565b6000601f19601f8301169050919050565b6000612c4782612be5565b612c518185612bf0565b9350612c61818560208601612c01565b612c6a81612c2b565b840191505092915050565b60006020820190508181036000830152612c8f8184612c3c565b905092915050565b6000819050919050565b612caa81612c97565b8114612cb557600080fd5b50565b600081359050612cc781612ca1565b92915050565b600060208284031215612ce357612ce2612ac7565b5b6000612cf184828501612cb8565b91505092915050565b600073ffffffffffffffffffffffffffffffffffffffff82169050919050565b6000612d2582612cfa565b9050919050565b612d3581612d1a565b82525050565b6000602082019050612d506000830184612d2c565b92915050565b612d5f81612d1a565b8114612d6a57600080fd5b50565b600081359050612d7c81612d56565b92915050565b60008060408385031215612d9957612d98612ac7565b5b6000612da785828601612d6d565b9250506020612db885828601612cb8565b9150509250929050565b612dcb81612c97565b82525050565b6000602082019050612de66000830184612dc2565b92915050565b600080600060608486031215612e0557612e04612ac7565b5b6000612e1386828701612d6d565b9350506020612e2486828701612d6d565b9250506040612e3586828701612cb8565b9150509250925092565b600060208284031215612e5557612e54612ac7565b5b6000612e6384828501612d6d565b91505092915050565b600081519050919050565b600082825260208201905092915050565b6000819050602082019050919050565b612ea181612c97565b82525050565b6000612eb38383612e98565b60208301905092915050565b6000602082019050919050565b6000612ed782612e6c565b612ee18185612e77565b9350612eec83612e88565b8060005b83811015612f1d578151612f048882612ea7565b9750612f0f83612ebf565b925050600181019050612ef0565b5085935050505092915050565b60006020820190508181036000830152612f448184612ecc565b905092915050565b600080fd5b600080fd5b7f4e487b7100000000000000000000000000000000000000000000000000000000600052604160045260246000fd5b612f8e82612c2b565b810181811067ffffffffffffffff82111715612fad57612fac612f56565b5b80604052505050565b6000612fc0612abd565b9050612fcc8282612f85565b919050565b600067ffffffffffffffff821115612fec57612feb612f56565b5b612ff582612c2b565b9050602081019050919050565b82818337600083830152505050565b600061302461301f84612fd1565b612fb6565b9050828152602081018484840111156130405761303f612f51565b5b61304b848285613002565b509392505050565b600082601f83011261306857613067612f4c565b5b8135613078848260208601613011565b91505092915050565b60006020828403121561309757613096612ac7565b5b600082013567ffffffffffffffff8111156130b5576130b4612acc565b5b6130c184828501613053565b91505092915050565b600080604083850312156130e1576130e0612ac7565b5b60006130ef85828601612d6d565b925050602061310085828601612ba3565b9150509250929050565b600067ffffffffffffffff82111561312557613124612f56565b5b61312e82612c2b565b9050602081019050919050565b600061314e6131498461310a565b612fb6565b90508281526020810184848401111561316a57613169612f51565b5b613175848285613002565b509392505050565b600082601f83011261319257613191612f4c565b5b81356131a284826020860161313b565b91505092915050565b600080600080608085870312156131c5576131c4612ac7565b5b60006131d387828801612d6d565b94505060206131e487828801612d6d565b93505060406131f587828801612cb8565b925050606085013567ffffffffffffffff81111561321657613215612acc565b5b6132228782880161317d565b91505092959194509250565b6000806040838503121561324557613244612ac7565b5b600061325385828601612d6d565b925050602061326485828601612d6d565b9150509250929050565b7f4e487b7100000000000000000000000000000000000000000000000000000000600052602260045260246000fd5b600060028204905060018216806132b557607f821691505b6020821081036132c8576132c761326e565b5b50919050565b7f4552433732313a20617070726f76616c20746f2063757272656e74206f776e6560008201527f7200000000000000000000000000000000000000000000000000000000000000602082015250565b600061332a602183612bf0565b9150613335826132ce565b604082019050919050565b600060208201905081810360008301526133598161331d565b9050919050565b7f4552433732313a20617070726f76652063616c6c6572206973206e6f7420746f60008201527f6b656e206f776e6572206f7220617070726f76656420666f7220616c6c000000602082015250565b60006133bc603d83612bf0565b91506133c782613360565b604082019050919050565b600060208201905081810360008301526133eb816133af565b9050919050565b7f4552433732313a2063616c6c6572206973206e6f7420746f6b656e206f776e6560008201527f72206f7220617070726f76656400000000000000000000000000000000000000602082015250565b600061344e602d83612bf0565b9150613459826133f2565b604082019050919050565b6000602082019050818103600083015261347d81613441565b9050919050565b7f455243373231456e756d657261626c653a206f776e657220696e646578206f7560008201527f74206f6620626f756e6473000000000000000000000000000000000000000000602082015250565b60006134e0602b83612bf0565b91506134eb82613484565b604082019050919050565b6000602082019050818103600083015261350f816134d3565b9050919050565b600081905092915050565b50565b6000613531600083613516565b915061353c82613521565b600082019050919050565b600061355282613524565b9150819050919050565b7f4e487b7100000000000000000000000000000000000000000000000000000000600052601160045260246000fd5b600061359682612c97565b91506135a183612c97565b92508282019050808211156135b9576135b861355c565b5b92915050565b60006135ca82612c97565b91506135d583612c97565b92508282026135e381612c97565b915082820484148315176135fa576135f961355c565b5b5092915050565b600061360c82612c97565b91507fffffffffffffffffffffffffffffffffffffffffffffffffffffffffffffffff820361363e5761363d61355c565b5b600182019050919050565b7f4e487b7100000000000000000000000000000000000000000000000000000000600052603260045260246000fd5b7f455243373231456e756d657261626c653a20676c6f62616c20696e646578206f60008201527f7574206f6620626f756e64730000000000000000000000000000000000000000602082015250565b60006136d4602c83612bf0565b91506136df82613678565b604082019050919050565b60006020820190508181036000830152613703816136c7565b9050919050565b60008190508160005260206000209050919050565b60006020601f8301049050919050565b600082821b905092915050565b60006008830261376c7fffffffffffffffffffffffffffffffffffffffffffffffffffffffffffffffff8261372f565b613776868361372f565b95508019841693508086168417925050509392505050565b6000819050919050565b60006137b36137ae6137a984612c97565b61378e565b612c97565b9050919050565b6000819050919050565b6137cd83613798565b6137e16137d9826137ba565b84845461373c565b825550505050565b600090565b6137f66137e9565b6138018184846137c4565b505050565b5b818110156138255761381a6000826137ee565b600181019050613807565b5050565b601f82111561386a5761383b8161370a565b6138448461371f565b81016020851015613853578190505b61386761385f8561371f565b830182613806565b50505b505050565b600082821c905092915050565b600061388d6000198460080261386f565b1980831691505092915050565b60006138a6838361387c565b9150826002028217905092915050565b6138bf82612be5565b67ffffffffffffffff8111156138d8576138d7612f56565b5b6138e2825461329d565b6138ed828285613829565b600060209050601f831160018114613920576000841561390e578287015190505b613918858261389a565b865550613980565b601f19841661392e8661370a565b60005b8281101561395657848901518255600182019150602085019450602081019050613931565b86831015613973578489015161396f601f89168261387c565b8355505b6001600288020188555050505b505050505050565b7f4552433732313a20696e76616c696420746f6b656e2049440000000000000000600082015250565b60006139be601883612bf0565b91506139c982613988565b602082019050919050565b600060208201905081810360008301526139ed816139b1565b9050919050565b7f4552433732313a2061646472657373207a65726f206973206e6f74206120766160008201527f6c6964206f776e65720000000000000000000000000000000000000000000000602082015250565b6000613a50602983612bf0565b9150613a5b826139f4565b604082019050919050565b60006020820190508181036000830152613a7f81613a43565b9050919050565b7f4552433732314d657461646174613a2055524920717565727920666f72206e6f60008201527f6e6578697374656e7420746f6b656e7300000000000000000000000000000000602082015250565b6000613ae2603083612bf0565b9150613aed82613a86565b604082019050919050565b60006020820190508181036000830152613b1181613ad5565b9050919050565b600081905092915050565b6000613b2e82612be5565b613b388185613b18565b9350613b48818560208601612c01565b80840191505092915050565b60008154613b618161329d565b613b6b8186613b18565b94506001821660008114613b865760018114613b9b57613bce565b60ff1983168652811515820286019350613bce565b613ba48561370a565b60005b83811015613bc657815481890152600182019150602081019050613ba7565b838801955050505b50505092915050565b6000613be38286613b23565b9150613bef8285613b23565b9150613bfb8284613b54565b9150819050949350505050565b7f4f776e61626c653a206e6577206f776e657220697320746865207a65726f206160008201527f6464726573730000000000000000000000000000000000000000000000000000602082015250565b6000613c64602683612bf0565b9150613c6f82613c08565b604082019050919050565b60006020820190508181036000830152613c9381613c57565b9050919050565b7f4f776e61626c653a2063616c6c6572206973206e6f7420746865206f776e6572600082015250565b6000613cd0602083612bf0565b9150613cdb82613c9a565b602082019050919050565b60006020820190508181036000830152613cff81613cc3565b9050919050565b7f4552433732313a207472616e736665722066726f6d20696e636f72726563742060008201527f6f776e6572000000000000000000000000000000000000000000000000000000602082015250565b6000613d62602583612bf0565b9150613d6d82613d06565b604082019050919050565b60006020820190508181036000830152613d9181613d55565b9050919050565b7f4552433732313a207472616e7366657220746f20746865207a65726f2061646460008201527f7265737300000000000000000000000000000000000000000000000000000000602082015250565b6000613df4602483612bf0565b9150613dff82613d98565b604082019050919050565b60006020820190508181036000830152613e2381613de7565b9050919050565b7f4552433732313a20617070726f766520746f2063616c6c657200000000000000600082015250565b6000613e60601983612bf0565b9150613e6b82613e2a565b602082019050919050565b60006020820190508181036000830152613e8f81613e53565b9050919050565b7f4552433732313a207472616e7366657220746f206e6f6e20455243373231526560008201527f63656976657220696d706c656d656e7465720000000000000000000000000000602082015250565b6000613ef2603283612bf0565b9150613efd82613e96565b604082019050919050565b60006020820190508181036000830152613f2181613ee5565b9050919050565b7f4e487b7100000000000000000000000000000000000000000000000000000000600052601260045260246000fd5b7f455243373231456e756d657261626c653a20636f6e736563757469766520747260008201527f616e7366657273206e6f7420737570706f727465640000000000000000000000602082015250565b6000613fb3603583612bf0565b9150613fbe82613f57565b604082019050919050565b60006020820190508181036000830152613fe281613fa6565b9050919050565b600081519050919050565b600082825260208201905092915050565b600061401082613fe9565b61401a8185613ff4565b935061402a818560208601612c01565b61403381612c2b565b840191505092915050565b60006080820190506140536000830187612d2c565b6140606020830186612d2c565b61406d6040830185612dc2565b818103606083015261407f8184614005565b905095945050505050565b60008151905061409981612afd565b92915050565b6000602082840312156140b5576140b4612ac7565b5b60006140c38482850161408a565b91505092915050565b60006140d782612c97565b91506140e283612c97565b92508282039050818111156140fa576140f961355c565b5b92915050565b7f4e487b7100000000000000000000000000000000000000000000000000000000600052603160045260246000fd5b7f4552433732313a206d696e7420746f20746865207a65726f2061646472657373600082015250565b6000614165602083612bf0565b91506141708261412f565b602082019050919050565b6000602082019050818103600083015261419481614158565b9050919050565b7f4552433732313a20746f6b656e20616c7265616479206d696e74656400000000600082015250565b60006141d1601c83612bf0565b91506141dc8261419b565b602082019050919050565b60006020820190508181036000830152614200816141c4565b905091905056fea2646970667358221220792298b11eb541d2347882e3d38ea4bc7ee3355700515c18269fa3650ff52d0164736f6c6343000813003368747470733a2f2f6e667473746f726167652e6c696e6b2f697066732f626166796265696133787a733234706f6a6361786d6166726573356e6d6f36736f6161636d723770776a643772356c69647978706b7a76626b7475",
  "devdoc": {
    "events": {
      "Approval(address,address,uint256)": {
        "details": "Emitted when `owner` enables `approved` to manage the `tokenId` token."
      },
      "ApprovalForAll(address,address,bool)": {
        "details": "Emitted when `owner` enables or disables (`approved`) `operator` to manage all of its assets."
      },
      "Transfer(address,address,uint256)": {
        "details": "Emitted when `tokenId` token is transferred from `from` to `to`."
      }
    },
    "kind": "dev",
    "methods": {
      "approve(address,uint256)": {
        "details": "See {IERC721-approve}."
      },
      "balanceOf(address)": {
        "details": "See {IERC721-balanceOf}."
      },
      "getApproved(uint256)": {
        "details": "See {IERC721-getApproved}."
      },
      "isApprovedForAll(address,address)": {
        "details": "See {IERC721-isApprovedForAll}."
      },
      "name()": {
        "details": "See {IERC721Metadata-name}."
      },
      "owner()": {
        "details": "Returns the address of the current owner."
      },
      "ownerOf(uint256)": {
        "details": "See {IERC721-ownerOf}."
      },
      "renounceOwnership()": {
        "details": "Leaves the contract without owner. It will not be possible to call `onlyOwner` functions. Can only be called by the current owner. NOTE: Renouncing ownership will leave the contract without an owner, thereby disabling any functionality that is only available to the owner."
      },
      "safeTransferFrom(address,address,uint256)": {
        "details": "See {IERC721-safeTransferFrom}."
      },
      "safeTransferFrom(address,address,uint256,bytes)": {
        "details": "See {IERC721-safeTransferFrom}."
      },
      "setApprovalForAll(address,bool)": {
        "details": "See {IERC721-setApprovalForAll}."
      },
      "supportsInterface(bytes4)": {
        "details": "See {IERC165-supportsInterface}."
      },
      "symbol()": {
        "details": "See {IERC721Metadata-symbol}."
      },
      "tokenByIndex(uint256)": {
        "details": "See {IERC721Enumerable-tokenByIndex}."
      },
      "tokenOfOwnerByIndex(address,uint256)": {
        "details": "See {IERC721Enumerable-tokenOfOwnerByIndex}."
      },
      "tokenURI(uint256)": {
        "details": "See {IERC721Metadata-tokenURI}."
      },
      "totalSupply()": {
        "details": "See {IERC721Enumerable-totalSupply}."
      },
      "transferFrom(address,address,uint256)": {
        "details": "See {IERC721-transferFrom}."
      },
      "transferOwnership(address)": {
        "details": "Transfers ownership of the contract to a new account (`newOwner`). Can only be called by the current owner."
      }
    },
    "version": 1
  },
  "userdoc": {
    "kind": "user",
    "methods": {},
    "version": 1
  },
  "storageLayout": {
    "storage": [
      {
        "astId": 138,
        "contract": "contracts/BloczyNFT.sol:BloczyNFT",
        "label": "_name",
        "offset": 0,
        "slot": "0",
        "type": "t_string_storage"
      },
      {
        "astId": 140,
        "contract": "contracts/BloczyNFT.sol:BloczyNFT",
        "label": "_symbol",
        "offset": 0,
        "slot": "1",
        "type": "t_string_storage"
      },
      {
        "astId": 144,
        "contract": "contracts/BloczyNFT.sol:BloczyNFT",
        "label": "_owners",
        "offset": 0,
        "slot": "2",
        "type": "t_mapping(t_uint256,t_address)"
      },
      {
        "astId": 148,
        "contract": "contracts/BloczyNFT.sol:BloczyNFT",
        "label": "_balances",
        "offset": 0,
        "slot": "3",
        "type": "t_mapping(t_address,t_uint256)"
      },
      {
        "astId": 152,
        "contract": "contracts/BloczyNFT.sol:BloczyNFT",
        "label": "_tokenApprovals",
        "offset": 0,
        "slot": "4",
        "type": "t_mapping(t_uint256,t_address)"
      },
      {
        "astId": 158,
        "contract": "contracts/BloczyNFT.sol:BloczyNFT",
        "label": "_operatorApprovals",
        "offset": 0,
        "slot": "5",
        "type": "t_mapping(t_address,t_mapping(t_address,t_bool))"
      },
      {
        "astId": 1188,
        "contract": "contracts/BloczyNFT.sol:BloczyNFT",
        "label": "_ownedTokens",
        "offset": 0,
        "slot": "6",
        "type": "t_mapping(t_address,t_mapping(t_uint256,t_uint256))"
      },
      {
        "astId": 1192,
        "contract": "contracts/BloczyNFT.sol:BloczyNFT",
        "label": "_ownedTokensIndex",
        "offset": 0,
        "slot": "7",
        "type": "t_mapping(t_uint256,t_uint256)"
      },
      {
        "astId": 1195,
        "contract": "contracts/BloczyNFT.sol:BloczyNFT",
        "label": "_allTokens",
        "offset": 0,
        "slot": "8",
        "type": "t_array(t_uint256)dyn_storage"
      },
      {
        "astId": 1199,
        "contract": "contracts/BloczyNFT.sol:BloczyNFT",
        "label": "_allTokensIndex",
        "offset": 0,
        "slot": "9",
        "type": "t_mapping(t_uint256,t_uint256)"
      },
      {
        "astId": 7,
        "contract": "contracts/BloczyNFT.sol:BloczyNFT",
        "label": "_owner",
        "offset": 0,
        "slot": "10",
        "type": "t_address"
      },
      {
        "astId": 3187,
        "contract": "contracts/BloczyNFT.sol:BloczyNFT",
        "label": "baseURI",
        "offset": 0,
        "slot": "11",
        "type": "t_string_storage"
      },
      {
        "astId": 3190,
        "contract": "contracts/BloczyNFT.sol:BloczyNFT",
        "label": "baseExtension",
        "offset": 0,
        "slot": "12",
        "type": "t_string_storage"
      },
      {
        "astId": 3193,
        "contract": "contracts/BloczyNFT.sol:BloczyNFT",
        "label": "cost",
        "offset": 0,
        "slot": "13",
        "type": "t_uint256"
      },
      {
        "astId": 3196,
        "contract": "contracts/BloczyNFT.sol:BloczyNFT",
        "label": "maxSupply",
        "offset": 0,
        "slot": "14",
        "type": "t_uint256"
      },
      {
        "astId": 3199,
        "contract": "contracts/BloczyNFT.sol:BloczyNFT",
        "label": "maxMintAmount",
        "offset": 0,
        "slot": "15",
        "type": "t_uint256"
      },
      {
        "astId": 3202,
        "contract": "contracts/BloczyNFT.sol:BloczyNFT",
        "label": "paused",
        "offset": 0,
        "slot": "16",
        "type": "t_bool"
      },
      {
        "astId": 3206,
        "contract": "contracts/BloczyNFT.sol:BloczyNFT",
        "label": "whitelisted",
        "offset": 0,
        "slot": "17",
        "type": "t_mapping(t_address,t_bool)"
      }
    ],
    "types": {
      "t_address": {
        "encoding": "inplace",
        "label": "address",
        "numberOfBytes": "20"
      },
      "t_array(t_uint256)dyn_storage": {
        "base": "t_uint256",
        "encoding": "dynamic_array",
        "label": "uint256[]",
        "numberOfBytes": "32"
      },
      "t_bool": {
        "encoding": "inplace",
        "label": "bool",
        "numberOfBytes": "1"
      },
      "t_mapping(t_address,t_bool)": {
        "encoding": "mapping",
        "key": "t_address",
        "label": "mapping(address => bool)",
        "numberOfBytes": "32",
        "value": "t_bool"
      },
      "t_mapping(t_address,t_mapping(t_address,t_bool))": {
        "encoding": "mapping",
        "key": "t_address",
        "label": "mapping(address => mapping(address => bool))",
        "numberOfBytes": "32",
        "value": "t_mapping(t_address,t_bool)"
      },
      "t_mapping(t_address,t_mapping(t_uint256,t_uint256))": {
        "encoding": "mapping",
        "key": "t_address",
        "label": "mapping(address => mapping(uint256 => uint256))",
        "numberOfBytes": "32",
        "value": "t_mapping(t_uint256,t_uint256)"
      },
      "t_mapping(t_address,t_uint256)": {
        "encoding": "mapping",
        "key": "t_address",
        "label": "mapping(address => uint256)",
        "numberOfBytes": "32",
        "value": "t_uint256"
      },
      "t_mapping(t_uint256,t_address)": {
        "encoding": "mapping",
        "key": "t_uint256",
        "label": "mapping(uint256 => address)",
        "numberOfBytes": "32",
        "value": "t_address"
      },
      "t_mapping(t_uint256,t_uint256)": {
        "encoding": "mapping",
        "key": "t_uint256",
        "label": "mapping(uint256 => uint256)",
        "numberOfBytes": "32",
        "value": "t_uint256"
      },
      "t_string_storage": {
        "encoding": "bytes",
        "label": "string",
        "numberOfBytes": "32"
      },
      "t_uint256": {
        "encoding": "inplace",
        "label": "uint256",
        "numberOfBytes": "32"
      }
    }
  }
}